:100000000C942A000C9434000C9434000C943400AA
:100010000C9434000C9434000C9434000C94340090
:100020000C9434000C9434000C9434000C94340080
:100030000C9434000C9434000C9434000C94340070
:100040000C9434000C9434000C9434000C94340060
:100050000C94340011241FBECFE5D4E0DEBFCDBF29
:100060000E943E080C945B080C9400008FE08BBB50
:1000700015BA8EEF82BB2FEF84E39CE021508040C5
:100080009040E1F700C0000088E18BBB81E185BBB7
:100090008EEF82BB2FEF84E39CE0215080409040A4
:1000A000E1F700C000001BBA8FE085BB8EEF82BB7A
:1000B0002FEF84E39CE0215080409040E1F700C0A6
:1000C000000081E88BBB88E885BB8EEF82BB2FEFF9
:1000D00084E39CE0215080409040E1F700C00000A4
:1000E0008FE08BBB15BA8DEF82BB2FEF84E39CE0D2
:1000F000215080409040E1F700C0000088E18BBBB8
:1001000081E185BB8DEF82BB2FEF84E39CE0215022
:1001100080409040E1F700C000001BBA8FE085BB33
:100120008DEF82BB2FEF84E39CE021508040904014
:10013000E1F700C0000081E88BBB88E885BB8DEF4C
:1001400082BB2FEF84E39CE0215080409040E1F798
:1001500000C000008FE08BBB15BA8BEF82BB2FEF86
:1001600084E39CE0215080409040E1F700C0000013
:1001700088E18BBB81E185BB8BEF82BB2FEF84E3F2
:100180009CE0215080409040E1F700C000001BBA85
:100190008FE085BB8BEF82BB2FEF84E39CE0215087
:1001A00080409040E1F700C0000081E88BBB88E808
:1001B00085BB8BEF82BB2FEF84E39CE02150804016
:1001C0009040E1F700C000008FE08BBB15BA87EFCD
:1001D00082BB2FEF84E39CE0215080409040E1F708
:1001E00000C0000088E18BBB81E185BB87EF82BB4B
:1001F0002FEF84E39CE0215080409040E1F700C065
:1002000000001BBA8FE085BB87EF82BB2FEF84E332
:100210009CE0215080409040E1F700C0000081E860
:100220008BBB88E885BB87EF82BB2FEF84E39CE024
:10023000215080409040E1F700C0000008958FEF0A
:100240008BBB85BB8EEF82BB2FEF84E39CE02150FC
:1002500080409040E1F700C000008FEF8BBB85BB72
:100260008DEF82BB2FEF84E39CE0215080409040D3
:10027000E1F700C000008FEF8BBB85BB8BEF82BB2B
:100280002FEF84E39CE0215080409040E1F700C0D4
:1002900000008FEF8BBB85BB87EF82BB2FEF84E322
:1002A0009CE0215080409040E1F700C000008FE0CA
:1002B0008BBB15BA80EF82BB2FEF84E39CE021500B
:1002C00080409040E1F700C0000080EF8BBB15BA82
:1002D00082BB2FEF84E39CE0215080409040E1F707
:1002E00000C000001BBA80EF85BB82BB2FEF84E308
:1002F0009CE0215080409040E1F700C000001BBA14
:100300008FE085BB80EF82BB2FEF84E39CE0215020
:1003100080409040E1F700C000008FEF8BBB85BBB1
:1003200087EF82BB2FEF84E39CE021508040904018
:10033000E1F700C000008FEF8BBB85BB8BEF82BB6A
:100340002FEF84E39CE0215080409040E1F700C013
:1003500000008FEF8BBB85BB8DEF82BB2FEF84E35B
:100360009CE0215080409040E1F700C000008FEFFA
:100370008BBB85BB8EEF82BB2FEF84E39CE02150CB
:1003800080409040E1F700C000001BBA8FE085BBC1
:1003900080EF82BB2FEF84E39CE0215080409040AF
:1003A000E1F700C000001BBA80EF85BB82BB2FEFD6
:1003B00084E39CE0215080409040E1F700C00000C1
:1003C00080EF8BBB15BA82BB2FEF84E39CE02150FA
:1003D00080409040E1F700C000008FE08BBB15BA71
:1003E00080EF82BB2FEF84E39CE02150804090405F
:1003F000E1F700C00000089582E08BBB15BA8BEFD7
:1004000082BB2FEF84E39CE0215080409040E1F7D5
:1004100000C000008BB38BBBAE9A8AEF82BB2FEF7C
:1004200084E39CE0215080409040E1F700C0000050
:100430008BB382628BBB85B3846285BB88EF82BB42
:100440002FEF84E39CE0215080409040E1F700C012
:100450000000DC9A85B385BB8AEF82BB2FEF84E373
:100460009CE0215080409040E1F700C00000DF9AFE
:1004700085B385BB86EF82BB2FEF84E39CE02150E0
:1004800080409040E1F700C000008BB381688BBBD7
:1004900085B3816885BB85EF82BB2FEF84E39CE049
:1004A000215080409040E1F700C00000D89A85B309
:1004B000846485BB88EF82BB2FEF84E39CE02150EE
:1004C00080409040E1F700C000008BB3856D8BBB8E
:1004D00085B3846D85BB88EF82BB2FEF84E39CE0FE
:1004E000215080409040E1F700C0000008951F9324
:1004F000CF93DF9385E090E0B1E4A1E2F2E4E2E2A1
:1005000074E264E458E248E430E320ECBBBBA5BBF2
:1005100012BA1FEFC1EED4E01150C040D040E1F755
:1005200000C00000FBBBE5BB12BA1FEFC1EED4E078
:100530001150C040D040E1F700C000007BBB65BB5C
:1005400012BA1FEFC1EED4E01150C040D040E1F725
:1005500000C000005BBB45BB12BA1FEFC1EED4E088
:100560001150C040D040E1F700C000003BBB25BBAC
:1005700012BA1FEFC1EED4E01150C040D040E1F7F5
:1005800000C000002BBB35BB12BA1FEFC1EED4E098
:100590001150C040D040E1F700C000000197009723
:1005A00009F0B4CF85E090E0B1E4A1E230EC20E3C3
:1005B000F8E2E8E474E264E452E442E2BBBBA5BBC7
:1005C00012BA1FEFC1EED4E01150C040D040E1F7A5
:1005D00000C000003BBB25BB12BA1FEFC1EED4E048
:1005E0001150C040D040E1F700C000002BBB35BB2C
:1005F00012BA1FEFC1EED4E01150C040D040E1F775
:1006000000C00000FBBBE5BB12BA1FEFC1EED4E097
:100610001150C040D040E1F700C000007BBB65BB7B
:1006200012BA1FEFC1EED4E01150C040D040E1F744
:1006300000C000005BBB45BB12BA1FEFC1EED4E0A7
:100640001150C040D040E1F700C000000197009772
:1006500009F0B4CFDF91CF911F9108957F928F92CF
:100660009F92AF92BF92CF92DF92EF92FF920F9341
:100670001F93CF93DF9382E090E0C0E2B7EFA0E456
:1006800068E245EF0F2EF4E4AF2EF02DF5E40F2EC7
:10069000F9E2BF2EF02D39E6E5E50F2EF4EFCF2E6F
:1006A000F02D22EF0F2EF7E5DF2EF02D57ED0F2E58
:1006B000FBE6EF2EF02D0F2EFBE7FF2EF02D7BEF4C
:1006C0000F2EFFED9F2EF02D0F2EF0EF8F2EF02D21
:1006D00077247A941BBAC5BBB2BB0FEF12E5D7E003
:1006E00001501040D040E1F700C00000ABBBC5BBDB
:1006F000B2BB0FEF12E5D7E001501040D040E1F758
:1007000000C00000ABBB65BBB2BB0FEF12E5D7E08A
:1007100001501040D040E1F700C00000ABBB65BB0A
:1007200042BB0FEF12E5D7E001501040D040E1F797
:1007300000C00000ABBA65BB42BB0FEF12E5D7E0CB
:1007400001501040D040E1F700C00000FBBB65BB8A
:1007500042BB0FEF12E5D7E001501040D040E1F767
:1007600000C00000FBBBB5BA42BB0FEF12E5D7E0FB
:1007700001501040D040E1F700C00000FBBB35BB8A
:1007800042BB0FEF12E5D7E001501040D040E1F737
:1007900000C00000EBBB35BB42BB0FEF12E5D7E05A
:1007A00001501040D040E1F700C00000EBBB35BB6A
:1007B000C2BA0FEF12E5D7E001501040D040E1F788
:1007C00000C00000EBBB35BB22BB0FEF12E5D7E04A
:1007D00001501040D040E1F700C00000DBBA35BB4B
:1007E00022BB0FEF12E5D7E001501040D040E1F7F7
:1007F00000C000005BBB35BB22BB0FEF12E5D7E0AA
:1008000001501040D040E1F700C000005BBBE5BAEA
:1008100022BB0FEF12E5D7E001501040D040E1F7C6
:1008200000C000005BBBF5BA22BB0FEF12E5D7E0BA
:1008300001501040D040E1F700C000005BBB75BB29
:1008400022BB0FEF12E5D7E001501040D040E1F796
:1008500000C000009BBA75BB22BB0FEF12E5D7E0CA
:1008600001501040D040E1F700C000005BBB75BBF9
:1008700082BA0FEF12E5D7E001501040D040E1F707
:1008800000C000007BBA75BA82BA0FEF12E5D7E05C
:1008900001501040D040E1F700C000005BBB75BBC9
:1008A00082BA0FEF12E5D7E001501040D040E1F7D7
:1008B00000C000009BBA75BB22BB0FEF12E5D7E06A
:1008C00001501040D040E1F700C000005BBB75BB99
:1008D00022BB0FEF12E5D7E001501040D040E1F706
:1008E00000C000005BBBF5BA22BB0FEF12E5D7E0FA
:1008F00001501040D040E1F700C000005BBBE5BAFA
:1009000022BB0FEF12E5D7E001501040D040E1F7D5
:1009100000C000005BBB35BB22BB0FEF12E5D7E088
:1009200001501040D040E1F700C00000DBBA35BBF9
:1009300022BB0FEF12E5D7E001501040D040E1F7A5
:1009400000C00000EBBB35BB22BB0FEF12E5D7E0C8
:1009500001501040D040E1F700C00000EBBB35BBB8
:10096000C2BA0FEF12E5D7E001501040D040E1F7D6
:1009700000C00000EBBB35BB42BB0FEF12E5D7E078
:1009800001501040D040E1F700C00000FBBB35BB78
:1009900042BB0FEF12E5D7E001501040D040E1F725
:1009A00000C00000FBBBB5BA42BB0FEF12E5D7E0B9
:1009B00001501040D040E1F700C00000FBBB65BB18
:1009C00042BB0FEF12E5D7E001501040D040E1F7F5
:1009D00000C00000ABBA65BB42BB0FEF12E5D7E029
:1009E00001501040D040E1F700C00000ABBB65BB38
:1009F00042BB0FEF12E5D7E001501040D040E1F7C5
:100A000000C00000ABBB65BBB2BB0FEF12E5D7E087
:100A100001501040D040E1F700C00000ABBBC5BBA7
:100A2000B2BB0FEF12E5D7E001501040D040E1F724
:100A300000C000001BBAC5BBB2BB0FEF12E5D7E088
:100A400001501040D040E1F700C00000019700972E
:100A500009F040CEDF91CF911F910F91FF90EF9061
:100A6000DF90CF90BF90AF909F908F907F90089530
:100A7000CF9385E090E0F7EE50EE41EF7EE720E780
:100A800067E7EEEE38EFFBBB55BB42BBAFEFB1EE15
:100A9000C4E0A150B040C040E1F700C000007BBB03
:100AA00025BB42BBAFEFB1EEC4E0A150B040C040A7
:100AB000E1F700C000002BBB65BB42BBAFEFB1EE5E
:100AC000C4E0A150B040C040E1F700C000005BBBF3
:100AD000E5BB42BBAFEFB1EEC4E0A150B040C040B7
:100AE000E1F700C00000FBBB55BB32BBAFEFB1EE7E
:100AF000C4E0A150B040C040E1F700C000007BBBA3
:100B000025BB32BBAFEFB1EEC4E0A150B040C04056
:100B1000E1F700C000002BBB65BB32BBAFEFB1EE0D
:100B2000C4E0A150B040C040E1F700C000005BBB92
:100B3000E5BB32BBAFEFB1EEC4E0A150B040C04066
:100B4000E1F700C000002BBB65BB32BBAFEFB1EEDD
:100B5000C4E0A150B040C040E1F700C000007BBB42
:100B600025BB32BBAFEFB1EEC4E0A150B040C040F6
:100B7000E1F700C00000FBBB55BB32BBAFEFB1EEED
:100B8000C4E0A150B040C040E1F700C000005BBB32
:100B9000E5BB42BBAFEFB1EEC4E0A150B040C040F6
:100BA000E1F700C000002BBB65BB42BBAFEFB1EE6D
:100BB000C4E0A150B040C040E1F700C000007BBBE2
:100BC00025BB42BBAFEFB1EEC4E0A150B040C04086
:100BD000E1F700C000000197009709F054CFCF91D2
:100BE00008958F929F92AF92BF92CF92DF92EF9231
:100BF000FF920F931F93CF93DF9325E030E00F2EEA
:100C0000F5E0CF2EF02DD12C01E818E8B7EFF2E493
:100C1000E4E47BEF64E252E24DEF0F2EF8E19F2E09
:100C2000F02D0F2EF1E18F2EF02DAEEF0FC10BBB8B
:100C300015BBB2BBCFE1DEE42197F1F700C00000A5
:100C4000FBBBE5BB72BBCFE1DEE42197F1F700C04F
:100C500000006BBB55BB42BBCFE1DEE42197F1F74F
:100C600000C000009BBA85BAA2BBCFE1DEE42197A9
:100C7000F1F700C0000001970097C9F68C2D9D2D5B
:100C8000FBBBE5BBB2BBCFE1DEE42197F1F700C0CF
:100C90000000FBBBE5BB72BBCFE1DEE42197F1F7BF
:100CA00000C000006BBB55BB42BBCFE1DEE4219727
:100CB000F1F700C000006BBB55BBA2BBCFE1DEE487
:100CC0002197F1F700C0000001970097C9F68C2D1D
:100CD0009D2D6BBB55BBB2BBCFE1DEE42197F1F795
:100CE00000C000006BBB55BB72BBCFE1DEE42197B7
:100CF000F1F700C00000FBBBE5BB42BBCFE1DEE487
:100D00002197F1F700C00000FBBBE5BBA2BBCFE120
:100D1000DEE42197F1F700C0000001970097C9F6C3
:100D20008C2D9D2D9BBA85BAB2BBCFE1DEE4219715
:100D3000F1F700C000006BBB55BB72BBCFE1DEE436
:100D40002197F1F700C00000FBBBE5BB42BBCFE140
:100D5000DEE42197F1F700C000000BBB15BBA2BB7E
:100D6000CFE1DEE42197F1F700C000000197009782
:100D7000C9F68C2D9D2D0F2EFCE3AF2EF02D0F2EDE
:100D8000F3E3BF2EF02D0F2EF3ECEF2EF02D0F2EF0
:100D9000FCECFF2EF02DABBAB5BA72BBCFE1DEE4AE
:100DA0002197F1F700C00000EBBAF5BA42BBCFE1E2
:100DB000DEE42197F1F700C000000197009759F792
:100DC0008C2D9D2D0F2EF3ECAF2EF02D0F2EFCEC65
:100DD000BF2EF02D0F2EFCE3EF2EF02D0F2EF3E3A0
:100DE000FF2EF02DABBAB5BA72BBCFE1DEE421978E
:100DF000F1F700C00000EBBAF5BA42BBCFE1DEE488
:100E00002197F1F700C000000197009759F7215092
:100E1000310921153105D1F425E030E00F2EF5E040
:100E2000DF2EF02DE12C0F2EF3ECFF2EF02D0CEC2D
:100E3000EBEF1CE3D3E37DEFC8E10F2EF1E19F2E32
:100E4000F02DF7EF64E252E242E408C18C2D9D2DB3
:100E5000EECEFBBA05BBE2BBAFE1BEE41197F1F702
:100E600000C000001BBBD5BB72BBAFE1BEE4119755
:100E7000F1F700C000000197009759F78D2D9E2DC6
:100E80001BBBD5BBE2BBAFE1BEE41197F1F700C0DD
:100E90000000FBBA05BB72BBAFE1BEE41197F1F7EE
:100EA00000C000000197009759F78D2D9E2D0F2E41
:100EB000F4E4AF2EF02D0F2EF1E8BF2EF02D0F2E03
:100EC000F8E8CF2EF02D0F2EFEEF8F2EF02DCBBB9E
:100ED00095BAF2BBAFE1BEE41197F1F700C0000094
:100EE0006BBB55BBE2BBAFE1BEE41197F1F700C0AD
:100EF00000004BBBA5BA72BBAFE1BEE41197F1F79E
:100F000000C00000BBBAC5BA82BAAFE1BEE4119717
:100F1000F1F700C0000001970097C9F68D2D9E2DB6
:100F20000F2EF4E4BF2EF02D0F2EFEEFCF2EF02D5E
:100F30006BBB55BBF2BBAFE1BEE41197F1F700C04C
:100F400000006BBB55BBE2BBAFE1BEE41197F1F70C
:100F500000C000004BBBB5BA72BBAFE1BEE4119755
:100F6000F1F700C000004BBBB5BAC2BAAFE1BEE4B6
:100F70001197F1F700C0000001970097C9F68D2D79
:100F80009E2D0F2EF4E4BF2EF02D0F2EFEEFCF2E50
:100F9000F02D4BBBB5BAF2BBAFE1BEE41197F1F750
:100FA00000C000004BBBB5BAE2BBAFE1BEE4119795
:100FB000F1F700C000006BBB55BB72BBAFE1BEE4F4
:100FC0001197F1F700C000006BBB55BBC2BAAFE18F
:100FD000BEE41197F1F700C0000001970097C9F631
:100FE0008D2D9E2D0F2EF1E8AF2EF02D0F2EF8E84F
:100FF000BF2EF02D0F2EF4E4CF2EF02D0F2EFEEF8E
:101000008F2EF02DABBAB5BAF2BBAFE1BEE41197AB
:10101000F1F700C000004BBBC5BAE2BBAFE1BEE4D4
:101020001197F1F700C000006BBB55BB72BBAFE17D
:10103000BEE41197F1F700C00000CBBB95BA82BAAD
:10104000AFE1BEE41197F1F700C0000001970097EF
:10105000C9F6215031092115310519F08D2D9E2D2C
:10106000F8CEDF91CF911F910F91FF90EF90DF901D
:10107000CF90BF90AF909F908F9008958FEF8ABBD5
:1010800084BB81BBCFEFCBBBC5BB12BA0E942E0382
:101090000E941F010E9436000E94FC010E947702FC
:1010A0000E9477020E94F1050E94F1050E94380516
:0A10B0000E943805E8CFF894FFCF46
:00000001FF
